S00F0000744D65746572322E7372656372
S11300000C942A000C943C000C943C000C943C008E
S11300100C943C000C943C000C943C000C943C006C
S11300200C943C000C943C000C943C000C943C005C
S11300300C943C000C943C000C943C000C943C004C
S11300400C943C000C943C000C943C000C943C003C
S11300500C943C0011241FBECFE5D8E0DEBFCDBF19
S113006020E0A0E6B0E001C01D92A436B207E1F79B
S11300700E94B5000C94C3010C940000A898A09AA7
S113008080EA8A95F1F7A09894E19A95F1F783B301
S11300909CE89A95F1F781700895A898A09A0000B9
S11300A08111A09884E18A95F1F7A0980895A89801
S11300B0A09A0000A09884E08A95F1F700C083B369
S11300C09FE09A95F1F781700895CF93DF93D82F2D
S11300D0C8E08D2F81700E944D00D695C150C9F79C
S11300E0DF91CF910895CF93DF93D8E0C0E00E94D1
S11300F0570020E8829FC0011124C695C82BD15017
S1130100B1F78C2FDF91CF910895CF93F8940E948B
S11301103E008CEC0E94650084E40E9465000E940D
S113012057008823E1F30E943E008CEC0E94650096
S11301308EEB0E9465000E947300C82F0E9473001A
S11301407894682F70E0762F66276C0F711D072E48
S1130150000C880B990B0E94CA0020E030E040E8B4
S11301605DE30E940501CF9108950F2EC12CD12C7F
S1130170F0EEEF2EF0E4FF2EF02D0E948500C092E9
S11301806000D0926100E0926200F0926300F5CFCB
S1130190E89409C097FB3EF490958095709561951D
S11301A07F4F8F4F9F4F9923A9F0F92F96E9BB27D3
S11301B09395F695879577956795B795F111F8CF4F
S11301C0FAF4BB0F11F460FF1BC06F5F7F4F8F4FBA
S11301D09F4F16C0882311F096E911C0772321F0B0
S11301E09EE8872F762F05C0662371F096E8862F48
S11301F070E060E02AF09A95660F771F881FDAF79F
S1130200880F9695879597F908950E9418010C9484
S113021089010E947B0138F00E94820120F095231D
S113022011F00C9472010C94780111240C94BD010A
S11302300E949A0170F3959FC1F3950F50E0551FEA
S1130240629FF001729FBB27F00DB11D639FAA2727
S1130250F00DB11DAA1F649F6627B00DA11D661F76
S1130260829F2227B00DA11D621F739FB00DA11D97
S1130270621F839FA00D611D221F749F3327A00D51
S1130280611D231F849F600D211D822F762F6A2FED
S113029011249F5750409AF0F1F088234AF0EE0F52
S11302A0FF1FBB1F661F771F881F91505040A9F77F
S11302B09E3F510580F00C9472010C94BD015F3F88
S11302C0E4F3983ED4F3869577956795B795F795BB
S11302D0E7959F5FC1F7FE2B880F911D9695879533
S11302E097F9089597F99F6780E870E060E00895B2
S11302F09FEF80EC089500240A941616170618063A
S11303000906089500240A94121613061406050615
S11303100895092E0394000C11F4882352F0BB0FA6
S113032040F4BF2B11F460FF04C06F5F7F4F8F4F09
S11303309F4F089557FD9058440F551F59F05F3F44
S113034071F04795880F97FB991F61F09F3F79F0F3
S113035087950895121613061406551FF2CF469575
S1130360F1DF08C0161617061806991FF1CF8695F7
S11303707105610508940895E894BB2766277727DB
S10D0380CB0197F90895F894FFCF1C
S9030000FC
